:1000000009C047C051C045C044C043C042C041C000
:1000100040C03FC011241FBECFE9CDBF10E0A0E615
:10002000B0E0EEE3F1E002C005900D92A236B10718
:10003000D9F701D082C07894F89437988BB7806252
:100040008BBFA89AB898BC9ABB9ABA9AB99AC49826
:10005000C39AC198C298789423E092E016B817B872
:1000600018B8479A379885B7877E806185BF85B570
:10007000836085BD85B7806285BFF89420BF90BF3F
:100080007894889585B78F7D85BF85B58C7F85BD34
:10009000E5CFB6CF019708F40895EBE2F1E0319790
:1000A000F1F700C00000F6CF1F920F920FB60F922B
:1000B00011242F933F934F935F936F937F938F936D
:1000C0009F93AF93BF93EF93FF938BB78F7D8BBFBE
:1000D000B09910C080916000882301F1C19AC39843
:1000E00088EE93E0D7DFC49A88EE93E0D3DFC1981F
:1000F000109260008BB780628BBFFF91EF91BF9130
:10010000AF919F918F917F916F915F914F913F91AF
:100110002F910F900FBE0F901F901895C198C39A02
:1001200088EE93E0B7DFC498C39880ED97E0B2DF24
:0E013000C39A81E080936000DDCFF894FFCF8A
:02013E000100BE
:00000001FF
